{
  "contractName": "Game",
  "abi": [
    {
      "constant": true,
      "inputs": [],
      "name": "maxRounds",
      "outputs": [
        {
          "name": "",
          "type": "uint256"
        }
      ],
      "payable": false,
      "stateMutability": "view",
      "type": "function"
    },
    {
      "constant": true,
      "inputs": [],
      "name": "player2",
      "outputs": [
        {
          "name": "id",
          "type": "address"
        },
        {
          "name": "boardHash",
          "type": "bytes32"
        },
        {
          "name": "moves",
          "type": "uint256"
        },
        {
          "name": "revealed",
          "type": "bool"
        },
        {
          "name": "hits",
          "type": "uint256"
        }
      ],
      "payable": false,
      "stateMutability": "view",
      "type": "function"
    },
    {
      "constant": true,
      "inputs": [],
      "name": "nextToPlay",
      "outputs": [
        {
          "name": "",
          "type": "uint256"
        }
      ],
      "payable": false,
      "stateMutability": "view",
      "type": "function"
    },
    {
      "constant": false,
      "inputs": [],
      "name": "destroy",
      "outputs": [],
      "payable": false,
      "stateMutability": "nonpayable",
      "type": "function"
    },
    {
      "constant": true,
      "inputs": [],
      "name": "currentRound",
      "outputs": [
        {
          "name": "",
          "type": "uint256"
        }
      ],
      "payable": false,
      "stateMutability": "view",
      "type": "function"
    },
    {
      "constant": true,
      "inputs": [],
      "name": "owner",
      "outputs": [
        {
          "name": "",
          "type": "address"
        }
      ],
      "payable": false,
      "stateMutability": "view",
      "type": "function"
    },
    {
      "constant": true,
      "inputs": [],
      "name": "ships",
      "outputs": [
        {
          "name": "",
          "type": "bytes"
        }
      ],
      "payable": false,
      "stateMutability": "view",
      "type": "function"
    },
    {
      "constant": true,
      "inputs": [],
      "name": "boardSize",
      "outputs": [
        {
          "name": "",
          "type": "uint256"
        }
      ],
      "payable": false,
      "stateMutability": "view",
      "type": "function"
    },
    {
      "constant": true,
      "inputs": [],
      "name": "player1",
      "outputs": [
        {
          "name": "id",
          "type": "address"
        },
        {
          "name": "boardHash",
          "type": "bytes32"
        },
        {
          "name": "moves",
          "type": "uint256"
        },
        {
          "name": "revealed",
          "type": "bool"
        },
        {
          "name": "hits",
          "type": "uint256"
        }
      ],
      "payable": false,
      "stateMutability": "view",
      "type": "function"
    },
    {
      "constant": false,
      "inputs": [
        {
          "name": "newOwner",
          "type": "address"
        }
      ],
      "name": "transferOwnership",
      "outputs": [],
      "payable": false,
      "stateMutability": "nonpayable",
      "type": "function"
    },
    {
      "constant": false,
      "inputs": [
        {
          "name": "_recipient",
          "type": "address"
        }
      ],
      "name": "destroyAndSend",
      "outputs": [],
      "payable": false,
      "stateMutability": "nonpayable",
      "type": "function"
    },
    {
      "inputs": [
        {
          "name": "ships_",
          "type": "bytes"
        },
        {
          "name": "boardSize_",
          "type": "uint256"
        },
        {
          "name": "maxRounds_",
          "type": "uint256"
        },
        {
          "name": "playerBoardHash_",
          "type": "bytes32"
        }
      ],
      "payable": false,
      "stateMutability": "nonpayable",
      "type": "constructor"
    },
    {
      "payable": false,
      "stateMutability": "nonpayable",
      "type": "fallback"
    },
    {
      "anonymous": false,
      "inputs": [
        {
          "indexed": true,
          "name": "previousOwner",
          "type": "address"
        },
        {
          "indexed": true,
          "name": "newOwner",
          "type": "address"
        }
      ],
      "name": "OwnershipTransferred",
      "type": "event"
    },
    {
      "constant": false,
      "inputs": [
        {
          "name": "boardHash_",
          "type": "bytes32"
        }
      ],
      "name": "join",
      "outputs": [],
      "payable": false,
      "stateMutability": "nonpayable",
      "type": "function"
    },
    {
      "constant": false,
      "inputs": [
        {
          "name": "x_",
          "type": "uint256"
        },
        {
          "name": "y_",
          "type": "uint256"
        }
      ],
      "name": "playMove",
      "outputs": [],
      "payable": false,
      "stateMutability": "nonpayable",
      "type": "function"
    },
    {
      "constant": false,
      "inputs": [
        {
          "name": "board_",
          "type": "bytes"
        }
      ],
      "name": "reveal",
      "outputs": [],
      "payable": false,
      "stateMutability": "nonpayable",
      "type": "function"
    },
    {
      "constant": true,
      "inputs": [
        {
          "name": "board",
          "type": "bytes"
        }
      ],
      "name": "calculateBoardHash",
      "outputs": [
        {
          "name": "",
          "type": "bytes32"
        }
      ],
      "payable": false,
      "stateMutability": "pure",
      "type": "function"
    }
  ],
  "bytecode": "0x60806040523480156200001157600080fd5b506040516200157d3803806200157d83398101806040528101908080518201929190602001805190602001909291908051906020019092919080519060200190929190505050336000806101000a81548173ffffffffffffffffffffffffffffffffffffffff021916908373ffffffffffffffffffffffffffffffffffffffff1602179055508351600111151515620000a957600080fd5b82600211158015620000bc575082601010155b1515620000c857600080fd5b81600111158015620000dc57508183840210155b1515620000e857600080fd5b83600190805190602001906200010092919062000190565b50816002819055508260038190555033600460000160006101000a81548173ffffffffffffffffffffffffffffffffffffffff021916908373ffffffffffffffffffffffffffffffffffffffff16021790555080600460010181600019169055506000601060006101000a81548160ff021916908360038111156200018157fe5b0217905550505050506200023f565b828054600181600116156101000203166002900490600052602060002090601f016020900481019282601f10620001d357805160ff191683800117855562000204565b8280016001018555821562000204579182015b8281111562000203578251825591602001919060010190620001e6565b5b50905062000213919062000217565b5090565b6200023c91905b80821115620002385760008160009055506001016200021e565b5090565b90565b61132e806200024f6000396000f3006080604052600436106100db576000357c0100000000000000000000000000000000000000000000000000000000900463ffffffff1680631faf969b146100ed57806359a5f12d146101185780636f746a511461019757806372f12a5d1461021c57806379cdc98c1461028557806383197ef0146102b05780638a19c8bc146102c75780638da5cb5b146102f2578063ad677d0b14610349578063bbf8218a1461037a578063c51d69f41461040a578063d30895e414610435578063e8fcf9ed146104b4578063f2fde38b146104eb578063f5074f411461052e575b3480156100e757600080fd5b50600080fd5b3480156100f957600080fd5b50610102610571565b6040518082815260200191505060405180910390f35b34801561012457600080fd5b5061012d610577565b604051808673ffffffffffffffffffffffffffffffffffffffff1673ffffffffffffffffffffffffffffffffffffffff1681526020018560001916600019168152602001848152602001831515151581526020018281526020019550505050505060405180910390f35b3480156101a357600080fd5b506101fe600480360381019080803590602001908201803590602001908080601f01602080910402602001604051908101604052809392919081815260200183838082843782019150505050505091929192905050506105c8565b60405180826000191660001916815260200191505060405180910390f35b34801561022857600080fd5b50610283600480360381019080803590602001908201803590602001908080601f0160208091040260200160405190810160405280939291908181526020018383808284378201915050505050509192919290505050610634565b005b34801561029157600080fd5b5061029a6107d6565b6040518082815260200191505060405180910390f35b3480156102bc57600080fd5b506102c56107dc565b005b3480156102d357600080fd5b506102dc610871565b6040518082815260200191505060405180910390f35b3480156102fe57600080fd5b50610307610877565b604051808273ffffffffffffffffffffffffffffffffffffffff1673ffffffffffffffffffffffffffffffffffffffff16815260200191505060405180910390f35b34801561035557600080fd5b50610378600480360381019080803560001916906020019092919050505061089c565b005b34801561038657600080fd5b5061038f610a81565b6040518080602001828103825283818151815260200191508051906020019080838360005b838110156103cf5780820151818401526020810190506103b4565b50505050905090810190601f1680156103fc5780820380516001836020036101000a031916815260200191505b509250505060405180910390f35b34801561041657600080fd5b5061041f610b1f565b6040518082815260200191505060405180910390f35b34801561044157600080fd5b5061044a610b25565b604051808673ffffffffffffffffffffffffffffffffffffffff1673ffffffffffffffffffffffffffffffffffffffff1681526020018560001916600019168152602001848152602001831515151581526020018281526020019550505050505060405180910390f35b3480156104c057600080fd5b506104e96004803603810190808035906020019092919080359060200190929190505050610b76565b005b3480156104f757600080fd5b5061052c600480360381019080803573ffffffffffffffffffffffffffffffffffffffff169060200190929190505050610d36565b005b34801561053a57600080fd5b5061056f600480360381019080803573ffffffffffffffffffffffffffffffffffffffff169060200190929190505050610e8b565b005b60025481565b60098060000160009054906101000a900473ffffffffffffffffffffffffffffffffffffffff16908060010154908060020154908060030160009054906101000a900460ff16908060040154905085565b6000816040518082805190602001908083835b60208310151561060057805182526020820191506020810190506020830392506105db565b6001836020036101000a03801982511681845116808217855250505050505090500191505060405180910390209050919050565b6001600381111561064157fe5b601060009054906101000a900460ff16600381111561065c57fe5b14151561066857600080fd5b600460000160009054906101000a900473ffffffffffffffffffffffffffffffffffffffff1673ffffffffffffffffffffffffffffffffffffffff163373ffffffffffffffffffffffffffffffffffffffff161480156106d85750600460030160009054906101000a900460ff16155b8061074f5750600960000160009054906101000a900473ffffffffffffffffffffffffffffffffffffffff1673ffffffffffffffffffffffffffffffffffffffff163373ffffffffffffffffffffffffffffffffffffffff1614801561074e5750600960030160009054906101000a900460ff16155b5b151561075a57600080fd5b3373ffffffffffffffffffffffffffffffffffffffff16600460000160009054906101000a900473ffffffffffffffffffffffffffffffffffffffff1673ffffffffffffffffffffffffffffffffffffffff1614156107c5576107c08160046009610eff565b6107d3565b6107d28160096004610eff565b5b50565b600e5481565b6000809054906101000a900473ffffffffffffffffffffffffffffffffffffffff1673ffffffffffffffffffffffffffffffffffffffff163373ffffffffffffffffffffffffffffffffffffffff1614151561083757600080fd5b6000809054906101000a900473ffffffffffffffffffffffffffffffffffffffff1673ffffffffffffffffffffffffffffffffffffffff16ff5b600f5481565b6000809054906101000a900473ffffffffffffffffffffffffffffffffffffffff1681565b600060038111156108a957fe5b601060009054906101000a900460ff1660038111156108c457fe5b1415156108d057600080fd5b3373ffffffffffffffffffffffffffffffffffffffff16600460000160009054906101000a900473ffffffffffffffffffffffffffffffffffffffff1673ffffffffffffffffffffffffffffffffffffffff16141561093c578060046001018160001916905550610a7e565b600073ffffffffffffffffffffffffffffffffffffffff16600960000160009054906101000a900473ffffffffffffffffffffffffffffffffffffffff1673ffffffffffffffffffffffffffffffffffffffff1614806109ec57503373ffffffffffffffffffffffffffffffffffffffff16600960000160009054906101000a900473ffffffffffffffffffffffffffffffffffffffff1673ffffffffffffffffffffffffffffffffffffffff16145b15156109f757600080fd5b33600960000160006101000a81548173ffffffffffffffffffffffffffffffffffffffff021916908373ffffffffffffffffffffffffffffffffffffffff16021790555080600960010181600019169055506001600f819055506001600e819055506001601060006101000a81548160ff02191690836003811115610a7857fe5b02179055505b50565b60018054600181600116156101000203166002900480601f016020809104026020016040519081016040528092919081815260200182805460018160011615610100020316600290048015610b175780601f10610aec57610100808354040283529160200191610b17565b820191906000526020600020905b815481529060010190602001808311610afa57829003601f168201915b505050505081565b60035481565b60048060000160009054906101000a900473ffffffffffffffffffffffffffffffffffffffff16908060010154908060020154908060030160009054906101000a900460ff16908060040154905085565b600060016003811115610b8557fe5b601060009054906101000a900460ff166003811115610ba057fe5b141515610bac57600080fd5b600460000160009054906101000a900473ffffffffffffffffffffffffffffffffffffffff1673ffffffffffffffffffffffffffffffffffffffff163373ffffffffffffffffffffffffffffffffffffffff16148015610c0e57506001600e54145b80610c775750600960000160009054906101000a900473ffffffffffffffffffffffffffffffffffffffff1673ffffffffffffffffffffffffffffffffffffffff163373ffffffffffffffffffffffffffffffffffffffff16148015610c7657506002600e54145b5b1515610c8257600080fd5b82600354118015610c94575081600354115b1515610c9f57600080fd5b610ca983836112ee565b90506001600e541415610cd657806004600201600082825417925050819055506002600e81905550610d31565b80600960020160008282541792505081905550600f546002541115610d0b576001600f60008282540192505081905550610d30565b6002601060006101000a81548160ff02191690836003811115610d2a57fe5b02179055505b5b505050565b6000809054906101000a900473ffffffffffffffffffffffffffffffffffffffff1673ffffffffffffffffffffffffffffffffffffffff163373ffffffffffffffffffffffffffffffffffffffff16141515610d9157600080fd5b600073ffffffffffffffffffffffffffffffffffffffff168173ffffffffffffffffffffffffffffffffffffffff1614151515610dcd57600080fd5b8073ffffffffffffffffffffffffffffffffffffffff166000809054906101000a900473ffffffffffffffffffffffffffffffffffffffff1673ffffffffffffffffffffffffffffffffffffffff167f8be0079c531659141344cd1fd0a4f28419497f9722a3daafe3b4186f6b6457e060405160405180910390a3806000806101000a81548173ffffffffffffffffffffffffffffffffffffffff021916908373ffffffffffffffffffffffffffffffffffffffff16021790555050565b6000809054906101000a900473ffffffffffffffffffffffffffffffffffffffff1673ffffffffffffffffffffffffffffffffffffffff163373ffffffffffffffffffffffffffffffffffffffff16141515610ee657600080fd5b8073ffffffffffffffffffffffffffffffffffffffff16ff5b600080600080600080600080600060036001805460018160011615610100020316600290049050028c51141515610f3557600080fd5b610f3e8c6105c8565b600019168b6001015460001916141515610f5757600080fd5b60008a6004018190555060019850600097505b8760018054600181600116156101000203166002900490501115611274578760030296508b87815181101515610f9c57fe5b9060200101517f010000000000000000000000000000000000000000000000000000000000000090047f0100000000000000000000000000000000000000000000000000000000000000027f0100000000000000000000000000000000000000000000000000000000000000900495508b6001880181518110151561101d57fe5b9060200101517f010000000000000000000000000000000000000000000000000000000000000090047f0100000000000000000000000000000000000000000000000000000000000000027f0100000000000000000000000000000000000000000000000000000000000000900494508b6002880181518110151561109e57fe5b9060200101517f010000000000000000000000000000000000000000000000000000000000000090047f0100000000000000000000000000000000000000000000000000000000000000027f010000000000000000000000000000000000000000000000000000000000000090046000109350600188815460018160011615610100020316600290048110151561113157fe5b8154600116156111505790600052602060002090602091828204019190065b9054901a7f0100000000000000000000000000000000000000000000000000000000000000027f010000000000000000000000000000000000000000000000000000000000000090049250856000111580156111ad575085600354115b15156111b857600080fd5b846000111580156111ca575084600354115b15156111d557600080fd5b82846111e157856111e3565b865b01600354101515156111f457600080fd5b600091508290505b806000101561124857896002015461121487876112ee565b166000141515611225576001820191505b83156112365760018601955061123d565b6001850194505b6001810390506111fc565b60018a6004016000828254019250508190555088801561126757508282145b9850600188019750610f6a565b8960030160009054906101000a900460ff16156112b4576003601060006101000a81548160ff021916908360038111156112aa57fe5b02179055506112e0565b88156112df576002601060006101000a81548160ff021916908360038111156112d957fe5b02179055505b5b505050505050505050505050565b60008160035484020160020a9050929150505600a165627a7a723058200db0cb91a6b986b211878d9f8f50bacb120a601b894a53277f03b9864b7205360029",
  "source": "pragma solidity ^0.4.23;\n\nimport \"../installed_contracts/zeppelin/contracts/lifecycle/Destructible.sol\";\n\ncontract Game is Destructible {\n\n    /** Ship sizes */\n    bytes public ships;\n\n    /**\n     * Max. no of moves each player gets\n     */\n  uint public maxRounds;\n  /**\n   * Board is a square, each side of this size.\n   *\n   * Note: Due to how we record player moves (by marking bits of a uint) the max board size is 16 (= sqrt(256)).\n   */\n  uint public boardSize;\n\n\n\n  enum GameState {\n      NeedOpponent,\n      WaitingForPlayer,\n      Reveal,\n      Over\n  }\n\n  struct Player {\n      address id;\n      bytes32 boardHash;\n      /*\n       Since we're doing a 10x10 grid that's 100 spaces, so a 256-bit integer\n       will more than suffice for storing all the moves made if we use each\n       bit of the integer to represent a move on the grid.\n\n       We do this instead of using an array as it results in less storage space\n       used as well as for faster board comparision later on.\n      */\n      uint moves;\n      bool revealed;\n      uint hits;\n  }\n\n  Player public player1;\n  Player public player2;\n\n  uint public nextToPlay;\n\n  uint public currentRound;\n\n  GameState private state;\n\n  /**\n   * Check that the game is still in play and that the\n   * current sender is the next person to play in the game\n   */\n  modifier isNextToPlay () {\n    require(state == GameState.WaitingForPlayer);\n    require(\n      (msg.sender == player1.id && nextToPlay == 1) ||\n      (msg.sender == player2.id && nextToPlay == 2)\n    );\n    _;\n  }\n\n  /**\n   * Check that the game can be revealed and that the\n   * current sender is a player who is yet to call reveal()\n   */\n  modifier canReveal () {\n      require(state == GameState.WaitingForPlayer);\n      require(\n        (msg.sender == player1.id && !player1.revealed) ||\n        (msg.sender == player2.id && !player2.revealed)\n      );\n      _;\n  }\n\n\n  /**\n   * Check that game can be joined.\n   */\n  modifier canJoin () {\n    require(state == GameState.NeedOpponent);\n    _;\n  }\n\n  /**\n   * Initialize the game.\n   * @param ships_ the ship sizes\n   * @param boardSize_ the width and height of the board square\n   * @param maxRounds_ the number of goes each player gets in total\n   * @param playerBoardHash_ Hash of player 1's board\n   */\n  constructor (bytes ships_, uint boardSize_, uint maxRounds_, bytes32 playerBoardHash_) public {\n    require(1 <= ships_.length);\n    require(2 <= boardSize_ && 16 >= boardSize_);\n    require(1 <= maxRounds_ && (boardSize_ * boardSize_) >= maxRounds_);\n    // setup game\n    ships = ships_;\n    maxRounds = maxRounds_;\n    boardSize = boardSize_;\n      // setup player1\n      player1.id = msg.sender;\n      player1.boardHash = playerBoardHash_;\n      // we're awaiting confirmation of player2\n      state = GameState.NeedOpponent;\n  }\n\n\n\n  /**\n   * Join the game\n   * @param boardHash_ Hash of player's board\n   */\n  function join(bytes32 boardHash_)\n    public\n    canJoin()\n  {\n      // allow player 1 to change their board whilst player 2 has not yet joined\n      if (player1.id == msg.sender) {\n        player1.boardHash = boardHash_;\n      } else {\n        // ensure this player is allowed to join\n        require(player2.id == address(0) || player2.id == msg.sender);\n\n        // update player2 details\n        player2.id = msg.sender;\n        player2.boardHash = boardHash_;\n\n        // game is now ready to start!\n        currentRound = 1;\n        nextToPlay = 1;\n        state = GameState.WaitingForPlayer;\n      }\n  }\n\n\n  /**\n   * Play a move\n   */\n  function playMove(uint x_, uint y_)\n    public\n    isNextToPlay()\n  {\n     // check that co-ordinates are valid\n     require(boardSize > x_ && boardSize > y_);\n\n     uint move = calculateMove(x_, y_);\n\n    // player 1 is moving!\n    if (nextToPlay == 1) {\n        player1.moves |= move;\n        nextToPlay = 2;\n    }\n    // player 2 is moving!\n    else {\n        player2.moves |= move;\n\n        // got more rounds left?\n        if (maxRounds > currentRound) {\n            nextToPlay == 1;\n            currentRound += 1;\n        }\n        // else it's time to see who has won\n        else {\n            state = GameState.Reveal;\n        }\n    }\n  }\n\n  /**\n   * Reveal the winner\n   *\n   * The `board` array is an array of triplets, whereby each triplet represents\n   * a ship, specifying (x,y,isVertical).\n   *\n   * @param board_ This player's board\n   */\n  function reveal(bytes board_)\n    public\n    canReveal()\n    {\n        // work out which player we're dealing with\n        if (player1.id == msg.sender) {\n            calculateHits(board_, player1, player2);\n        }\n        else {\n            calculateHits(board_, player2, player1);\n        }\n    }\n\n\n  /**\n   * Calculate no. of hits for a player.\n   *\n   * Helper function to `reveal()`.\n   *\n   * This can be called while there are still rounds left to play, if a player\n   * thnks they've already sunk all the opponent's ships.\n   *\n   *\n   * @param  board_  The board to reveal\n   * @param  revealer_ The player whose board it is\n   * @param  mover_ The opponent player whose hits to calculate\n   */\n  function calculateHits(bytes board_, Player storage revealer_, Player storage mover_) internal {\n        // check that board length is valid\n        require(board_.length == ships.length * 3);\n\n        // board hash must match\n        require(revealer_.boardHash == calculateBoardHash(board_));\n\n        // now let's count the hits for the mover_ and check board validity in one go\n        mover_.hits = 0;\n\n        // keep track of whether all ships completely sunk\n        bool allShipsSunk = true;\n\n        for (uint ship = 0; ships.length > ship; ship += 1) {\n            // extract ship info\n            uint index = 3 * ship;\n            uint x = uint(board_[index]);\n            uint y = uint(board_[index + 1]);\n            bool isVertical = (0 < uint(board_[index + 2]));\n            uint shipSize = uint(ships[ship]);\n\n            // check validity of ship position\n            require(0 <= x && boardSize > x);\n            require(0 <= y && boardSize > y);\n            require(boardSize >= ((isVertical ? x : y) + shipSize));\n\n            uint hits = 0;\n            uint steps = shipSize;\n\n            // now let's see if there are hits\n            while (0 < steps) {\n                // did mover_ hit this position?\n                if (0 != (calculateMove(x, y) & mover_.moves)) {\n                    hits += 1;\n                }\n                // move to next part of ship\n                if (isVertical) {\n                    x += 1;\n                } else {\n                    y += 1;\n                }\n                // decrement counter\n                steps -= 1;\n            }\n\n            // add to mover hits\n            mover_.hits += 1;\n\n            // ship completely sunk?\n            allShipsSunk = allShipsSunk && (hits == shipSize);\n        }\n\n        // if both players have revealed then game is now over\n        if (mover_.revealed) {\n          state = GameState.Over;\n        }\n        // if all ships sunk then shift game into reveal phase\n        else if (allShipsSunk) {\n          state = GameState.Reveal;\n        }\n  }\n\n\n   /**\n    * Fallback should revert().\n    */\n    function() public {\n        revert();\n    }\n\n\n\n  /*\n  ------------------------------------------------------------\n  Helper functions\n  ------------------------------------------------------------\n  */\n\n  /**\n   * Calculate the bitwise position of given XY coordinate.\n   * @param x X coordinate\n   * @param y Y coordinate\n   * @return position in array\n   */\n  function calculateMove(uint x, uint y) internal view returns (uint) {\n      return 2 ** (x * boardSize + y);\n  }\n\n  /**\n   * Calculate board hash.\n   *\n   * @param board Array representing the board\n   * @return the SHA3 hash\n   */\n  function calculateBoardHash(bytes board) public pure returns (bytes32) {\n      return keccak256(board);\n  }\n\n}\n",
  "sourcePath": "/Users/ram/dev/cryptocurrency/battleship/contracts/Game.sol",
  "compiler": {
    "name": "solc",
    "version": "0.4.24+commit.e67f0147.Emscripten.clang"
  },
  "schemaVersion": "2.0.1",
  "updatedAt": "2018-08-10T12:13:58.902Z"
}