{
  "contractName": "Game",
  "abi": [
    {
      "constant": true,
      "inputs": [],
      "name": "maxRounds",
      "outputs": [
        {
          "name": "",
          "type": "uint256"
        }
      ],
      "payable": false,
      "stateMutability": "view",
      "type": "function"
    },
    {
      "constant": true,
      "inputs": [],
      "name": "player2",
      "outputs": [
        {
          "name": "",
          "type": "address"
        }
      ],
      "payable": false,
      "stateMutability": "view",
      "type": "function"
    },
    {
      "constant": true,
      "inputs": [],
      "name": "ships",
      "outputs": [
        {
          "name": "",
          "type": "bytes"
        }
      ],
      "payable": false,
      "stateMutability": "view",
      "type": "function"
    },
    {
      "constant": true,
      "inputs": [],
      "name": "state",
      "outputs": [
        {
          "name": "",
          "type": "uint8"
        }
      ],
      "payable": false,
      "stateMutability": "view",
      "type": "function"
    },
    {
      "constant": true,
      "inputs": [],
      "name": "boardSize",
      "outputs": [
        {
          "name": "",
          "type": "uint256"
        }
      ],
      "payable": false,
      "stateMutability": "view",
      "type": "function"
    },
    {
      "constant": true,
      "inputs": [],
      "name": "player1",
      "outputs": [
        {
          "name": "",
          "type": "address"
        }
      ],
      "payable": false,
      "stateMutability": "view",
      "type": "function"
    },
    {
      "constant": true,
      "inputs": [
        {
          "name": "",
          "type": "address"
        }
      ],
      "name": "players",
      "outputs": [
        {
          "name": "board",
          "type": "bytes"
        },
        {
          "name": "boardHash",
          "type": "bytes32"
        },
        {
          "name": "moves",
          "type": "uint256"
        },
        {
          "name": "hits",
          "type": "uint256"
        },
        {
          "name": "state",
          "type": "uint8"
        }
      ],
      "payable": false,
      "stateMutability": "view",
      "type": "function"
    },
    {
      "inputs": [
        {
          "name": "ships_",
          "type": "bytes"
        },
        {
          "name": "boardSize_",
          "type": "uint256"
        },
        {
          "name": "maxRounds_",
          "type": "uint256"
        },
        {
          "name": "boardHash_",
          "type": "bytes32"
        }
      ],
      "payable": false,
      "stateMutability": "nonpayable",
      "type": "constructor"
    },
    {
      "payable": false,
      "stateMutability": "nonpayable",
      "type": "fallback"
    },
    {
      "anonymous": false,
      "inputs": [
        {
          "indexed": false,
          "name": "player",
          "type": "address"
        }
      ],
      "name": "JoinGame",
      "type": "event"
    },
    {
      "anonymous": false,
      "inputs": [
        {
          "indexed": false,
          "name": "player",
          "type": "address"
        }
      ],
      "name": "RevealMoves",
      "type": "event"
    },
    {
      "anonymous": false,
      "inputs": [
        {
          "indexed": false,
          "name": "player",
          "type": "address"
        }
      ],
      "name": "RevealBoard",
      "type": "event"
    },
    {
      "constant": false,
      "inputs": [
        {
          "name": "boardHash_",
          "type": "bytes32"
        }
      ],
      "name": "join",
      "outputs": [],
      "payable": false,
      "stateMutability": "nonpayable",
      "type": "function"
    },
    {
      "constant": false,
      "inputs": [
        {
          "name": "moves_",
          "type": "uint256"
        }
      ],
      "name": "revealMoves",
      "outputs": [],
      "payable": false,
      "stateMutability": "nonpayable",
      "type": "function"
    },
    {
      "constant": false,
      "inputs": [
        {
          "name": "board_",
          "type": "bytes"
        }
      ],
      "name": "revealBoard",
      "outputs": [],
      "payable": false,
      "stateMutability": "nonpayable",
      "type": "function"
    },
    {
      "constant": true,
      "inputs": [],
      "name": "getMetadata",
      "outputs": [
        {
          "name": "_ships",
          "type": "bytes"
        },
        {
          "name": "_boardSize",
          "type": "uint256"
        },
        {
          "name": "_maxRounds",
          "type": "uint256"
        },
        {
          "name": "_state",
          "type": "uint8"
        },
        {
          "name": "_player1",
          "type": "address"
        },
        {
          "name": "_player2",
          "type": "address"
        }
      ],
      "payable": false,
      "stateMutability": "view",
      "type": "function"
    }
  ],
  "bytecode": "0x60806040523480156200001157600080fd5b5060405162001c1e38038062001c1e8339810180604052810190808051820192919060200180519060200190929190805190602001909291908051906020019092919050505083516001111515156200006957600080fd5b826002111580156200007c575082601010155b15156200008857600080fd5b816001111580156200009c57508183840210155b1515620000a857600080fd5b8360009080519060200190620000c092919062000233565b50816001819055508260028190555033600460006101000a81548173ffffffffffffffffffffffffffffffffffffffff021916908373ffffffffffffffffffffffffffffffffffffffff1602179055508060036000600460009054906101000a900473ffffffffffffffffffffffffffffffffffffffff1673ffffffffffffffffffffffffffffffffffffffff1673ffffffffffffffffffffffffffffffffffffffff1681526020019081526020016000206001018160001916905550600160036000600460009054906101000a900473ffffffffffffffffffffffffffffffffffffffff1673ffffffffffffffffffffffffffffffffffffffff1673ffffffffffffffffffffffffffffffffffffffff16815260200190815260200160002060040160006101000a81548160ff02191690836003811115620001ff57fe5b02179055506000600560146101000a81548160ff021916908360048111156200022457fe5b021790555050505050620002e2565b828054600181600116156101000203166002900490600052602060002090601f016020900481019282601f106200027657805160ff1916838001178555620002a7565b82800160010185558215620002a7579182015b82811115620002a657825182559160200191906001019062000289565b5b509050620002b69190620002ba565b5090565b620002df91905b80821115620002db576000816000905550600101620002c1565b5090565b90565b61192c80620002f26000396000f3006080604052600436106100af576000357c0100000000000000000000000000000000000000000000000000000000900463ffffffff1680631faf969b146100c157806341897b53146100ec57806359a5f12d146101555780637a5b4f59146101ac578063ad677d0b146102c5578063bbf8218a146102f6578063c19d93fb14610386578063c51d69f4146103bf578063d30895e4146103ea578063dd40d92214610441578063e2eb41ff1461046e575b3480156100bb57600080fd5b50600080fd5b3480156100cd57600080fd5b506100d661055c565b6040518082815260200191505060405180910390f35b3480156100f857600080fd5b50610153600480360381019080803590602001908201803590602001908080601f0160208091040260200160405190810160405280939291908181526020018383808284378201915050505050509192919290505050610562565b005b34801561016157600080fd5b5061016a610b0f565b604051808273ffffffffffffffffffffffffffffffffffffffff1673ffffffffffffffffffffffffffffffffffffffff16815260200191505060405180910390f35b3480156101b857600080fd5b506101c1610b35565b60405180806020018781526020018681526020018560048111156101e157fe5b60ff1681526020018473ffffffffffffffffffffffffffffffffffffffff1673ffffffffffffffffffffffffffffffffffffffff1681526020018373ffffffffffffffffffffffffffffffffffffffff1673ffffffffffffffffffffffffffffffffffffffff168152602001828103825288818151815260200191508051906020019080838360005b8381101561028557808201518184015260208101905061026a565b50505050905090810190601f1680156102b25780820380516001836020036101000a031916815260200191505b5097505050505050505060405180910390f35b3480156102d157600080fd5b506102f46004803603810190808035600019169060200190929190505050610c49565b005b34801561030257600080fd5b5061030b610f17565b6040518080602001828103825283818151815260200191508051906020019080838360005b8381101561034b578082015181840152602081019050610330565b50505050905090810190601f1680156103785780820380516001836020036101000a031916815260200191505b509250505060405180910390f35b34801561039257600080fd5b5061039b610fb5565b604051808260048111156103ab57fe5b60ff16815260200191505060405180910390f35b3480156103cb57600080fd5b506103d4610fc8565b6040518082815260200191505060405180910390f35b3480156103f657600080fd5b506103ff610fce565b604051808273ffffffffffffffffffffffffffffffffffffffff1673ffffffffffffffffffffffffffffffffffffffff16815260200191505060405180910390f35b34801561044d57600080fd5b5061046c60048036038101908080359060200190929190505050610ff4565b005b34801561047a57600080fd5b506104af600480360381019080803573ffffffffffffffffffffffffffffffffffffffff1690602001909291905050506113f0565b604051808060200186600019166000191681526020018581526020018481526020018360038111156104dd57fe5b60ff168152602001828103825287818151815260200191508051906020019080838360005b8381101561051d578082015181840152602081019050610502565b50505050905090810190601f16801561054a5780820380516001836020036101000a031916815260200191505b50965050505050505060405180910390f35b60015481565b60006002600481111561057157fe5b600560149054906101000a900460ff16600481111561058c57fe5b14806105bd5750600360048111156105a057fe5b600560149054906101000a900460ff1660048111156105bb57fe5b145b15156105c857600080fd5b600260038111156105d557fe5b600360003373ffffffffffffffffffffffffffffffffffffffff1673ffffffffffffffffffffffffffffffffffffffff16815260200190815260200160002060040160009054906101000a900460ff16600381111561063057fe5b14151561063c57600080fd5b73__GameLibrary___________________________63fe753e7a6000600254856040518463ffffffff167c010000000000000000000000000000000000000000000000000000000002815260040180806020018481526020018060200183810383528681815460018160011615610100020316600290048152602001915080546001816001161561010002031660029004801561071a5780601f106106ef5761010080835404028352916020019161071a565b820191906000526020600020905b8154815290600101906020018083116106fd57829003601f168201915b5050838103825284818151815260200191508051906020019080838360005b83811015610754578082015181840152602081019050610739565b50505050905090810190601f1680156107815780820380516001836020036101000a031916815260200191505b509550505050505060206040518083038186803b1580156107a157600080fd5b505af41580156107b5573d6000803e3d6000fd5b505050506040513d60208110156107cb57600080fd5b810190808051906020019092919050505060001916600360003373ffffffffffffffffffffffffffffffffffffffff1673ffffffffffffffffffffffffffffffffffffffff168152602001908152602001600020600101546000191614151561083357600080fd5b81600360003373ffffffffffffffffffffffffffffffffffffffff1673ffffffffffffffffffffffffffffffffffffffff168152602001908152602001600020600001908051906020019061088992919061185b565b5060038060003373ffffffffffffffffffffffffffffffffffffffff1673ffffffffffffffffffffffffffffffffffffffff16815260200190815260200160002060040160006101000a81548160ff021916908360038111156108e857fe5b02179055503373ffffffffffffffffffffffffffffffffffffffff16600460009054906101000a900473ffffffffffffffffffffffffffffffffffffffff1673ffffffffffffffffffffffffffffffffffffffff161461096a57600460009054906101000a900473ffffffffffffffffffffffffffffffffffffffff1661098e565b600560009054906101000a900473ffffffffffffffffffffffffffffffffffffffff165b9050610a16600360003373ffffffffffffffffffffffffffffffffffffffff1673ffffffffffffffffffffffffffffffffffffffff168152602001908152602001600020600360008473ffffffffffffffffffffffffffffffffffffffff1673ffffffffffffffffffffffffffffffffffffffff1681526020019081526020016000206114cb565b600380811115610a2257fe5b600360008373ffffffffffffffffffffffffffffffffffffffff1673ffffffffffffffffffffffffffffffffffffffff16815260200190815260200160002060040160009054906101000a900460ff166003811115610a7d57fe5b1415610aa8576004600560146101000a81548160ff02191690836004811115610aa257fe5b02179055505b7ffc00a2cabf2fee91a634c543436eba82b5f517bbca6c6717ffec352c9f2d65b833604051808273ffffffffffffffffffffffffffffffffffffffff1673ffffffffffffffffffffffffffffffffffffffff16815260200191505060405180910390a15050565b600560009054906101000a900473ffffffffffffffffffffffffffffffffffffffff1681565b60606000806000806000808054600181600116156101000203166002900480601f016020809104026020016040519081016040528092919081815260200182805460018160011615610100020316600290048015610bd45780601f10610ba957610100808354040283529160200191610bd4565b820191906000526020600020905b815481529060010190602001808311610bb757829003601f168201915b5050505050955060015493506002549450600560149054906101000a900460ff169250600460009054906101000a900473ffffffffffffffffffffffffffffffffffffffff169150600560009054906101000a900473ffffffffffffffffffffffffffffffffffffffff169050909192939495565b60006004811115610c5657fe5b600560149054906101000a900460ff166004811115610c7157fe5b141515610c7d57600080fd5b600560009054906101000a900473ffffffffffffffffffffffffffffffffffffffff1673ffffffffffffffffffffffffffffffffffffffff16600073ffffffffffffffffffffffffffffffffffffffff16141515610cda57600080fd5b600460009054906101000a900473ffffffffffffffffffffffffffffffffffffffff1673ffffffffffffffffffffffffffffffffffffffff163373ffffffffffffffffffffffffffffffffffffffff1614151515610d3757600080fd5b33600560006101000a81548173ffffffffffffffffffffffffffffffffffffffff021916908373ffffffffffffffffffffffffffffffffffffffff1602179055508060036000600560009054906101000a900473ffffffffffffffffffffffffffffffffffffffff1673ffffffffffffffffffffffffffffffffffffffff1673ffffffffffffffffffffffffffffffffffffffff1681526020019081526020016000206001018160001916905550600160036000600560009054906101000a900473ffffffffffffffffffffffffffffffffffffffff1673ffffffffffffffffffffffffffffffffffffffff1673ffffffffffffffffffffffffffffffffffffffff16815260200190815260200160002060040160006101000a81548160ff02191690836003811115610e6657fe5b02179055506001600560146101000a81548160ff02191690836004811115610e8a57fe5b02179055507f9d148569af2a4ae8c34122247102efb7bb91bf1b595c37c539b852954707d482600560009054906101000a900473ffffffffffffffffffffffffffffffffffffffff16604051808273ffffffffffffffffffffffffffffffffffffffff1673ffffffffffffffffffffffffffffffffffffffff16815260200191505060405180910390a150565b60008054600181600116156101000203166002900480601f016020809104026020016040519081016040528092919081815260200182805460018160011615610100020316600290048015610fad5780601f10610f8257610100808354040283529160200191610fad565b820191906000526020600020905b815481529060010190602001808311610f9057829003601f168201915b505050505081565b600560149054906101000a900460ff1681565b60025481565b600460009054906101000a900473ffffffffffffffffffffffffffffffffffffffff1681565b60006001600481111561100357fe5b600560149054906101000a900460ff16600481111561101e57fe5b148061104f57506002600481111561103257fe5b600560149054906101000a900460ff16600481111561104d57fe5b145b151561105a57600080fd5b6001600381111561106757fe5b600360003373ffffffffffffffffffffffffffffffffffffffff1673ffffffffffffffffffffffffffffffffffffffff16815260200190815260200160002060040160009054906101000a900460ff1660038111156110c257fe5b1415156110ce57600080fd5b60015473__GameLibrary___________________________632cc46dac846040518263ffffffff167c01000000000000000000000000000000000000000000000000000000000281526004018082815260200191505060206040518083038186803b15801561113c57600080fd5b505af4158015611150573d6000803e3d6000fd5b505050506040513d602081101561116657600080fd5b81019080805190602001909291905050501115151561118457600080fd5b81600360003373ffffffffffffffffffffffffffffffffffffffff1673ffffffffffffffffffffffffffffffffffffffff168152602001908152602001600020600201819055506002600360003373ffffffffffffffffffffffffffffffffffffffff1673ffffffffffffffffffffffffffffffffffffffff16815260200190815260200160002060040160006101000a81548160ff0219169083600381111561122a57fe5b02179055506002600560146101000a81548160ff0219169083600481111561124e57fe5b0217905550600460009054906101000a900473ffffffffffffffffffffffffffffffffffffffff1673ffffffffffffffffffffffffffffffffffffffff163373ffffffffffffffffffffffffffffffffffffffff16146112d057600460009054906101000a900473ffffffffffffffffffffffffffffffffffffffff166112f4565b600560009054906101000a900473ffffffffffffffffffffffffffffffffffffffff165b90506002600381111561130357fe5b600360008373ffffffffffffffffffffffffffffffffffffffff1673ffffffffffffffffffffffffffffffffffffffff16815260200190815260200160002060040160009054906101000a900460ff16600381111561135e57fe5b1415611389576003600560146101000a81548160ff0219169083600481111561138357fe5b02179055505b7f2f0f2939498d37fd59241f6bdb4348742de8470e5c6cbcdf1c57a754ed835e3f33604051808273ffffffffffffffffffffffffffffffffffffffff1673ffffffffffffffffffffffffffffffffffffffff16815260200191505060405180910390a15050565b6003602052806000526040600020600091509050806000018054600181600116156101000203166002900480601f01602080910402602001604051908101604052809291908181526020018280546001816001161561010002031660029004801561149c5780601f106114715761010080835404028352916020019161149c565b820191906000526020600020905b81548152906001019060200180831161147f57829003601f168201915b5050505050908060010154908060020154908060030154908060040160009054906101000a900460ff16905085565b60008060008060008060008760030181905550600095505b8560008054600181600116156101000203166002900490501115611851578560030294508760000185815460018160011615610100020316600290048110151561152957fe5b8154600116156115485790600052602060002090602091828204019190065b9054901a7f0100000000000000000000000000000000000000000000000000000000000000027f010000000000000000000000000000000000000000000000000000000000000090049350876000016001860181546001816001161561010002031660029004811015156115b857fe5b8154600116156115d75790600052602060002090602091828204019190065b9054901a7f0100000000000000000000000000000000000000000000000000000000000000027f0100000000000000000000000000000000000000000000000000000000000000900492508760000160028601815460018160011615610100020316600290048110151561164757fe5b8154600116156116665790600052602060002090602091828204019190065b9054901a7f0100000000000000000000000000000000000000000000000000000000000000027f01000000000000000000000000000000000000000000000000000000000000009004600010915060008681546001816001161561010002031660029004811015156116d457fe5b8154600116156116f35790600052602060002090602091828204019190065b9054901a7f0100000000000000000000000000000000000000000000000000000000000000027f0100000000000000000000000000000000000000000000000000000000000000900490505b806000101561184657866002015473__GameLibrary___________________________6359a4448260025487876040518463ffffffff167c010000000000000000000000000000000000000000000000000000000002815260040180848152602001838152602001828152602001935050505060206040518083038186803b1580156117ca57600080fd5b505af41580156117de573d6000803e3d6000fd5b505050506040513d60208110156117f457600080fd5b810190808051906020019092919050505016600014151561182357600187600301600082825401925050819055505b81156118345760018401935061183b565b6001830192505b60018103905061173f565b6001860195506114e3565b5050505050505050565b828054600181600116156101000203166002900490600052602060002090601f016020900481019282601f1061189c57805160ff19168380011785556118ca565b828001600101855582156118ca579182015b828111156118c95782518255916020019190600101906118ae565b5b5090506118d791906118db565b5090565b6118fd91905b808211156118f95760008160009055506001016118e1565b5090565b905600a165627a7a723058208cbe49d9dbe62869087b0f2639401a8f2f464b8a9a7e267ffca7da36f5d6bcaa0029",
  "source": "pragma solidity ^0.4.23;\n\nimport \"./GameLibrary.sol\";\n\ncontract Game {\n  using GameLibrary for *;\n\n    /** Ship sizes */\n    bytes public ships;\n\n    /**\n     * Max. no of moves each player gets\n     */\n  uint public maxRounds;\n  /**\n   * Board is a square, each side of this size.\n   *\n   * Note: Due to how we record player moves (by marking bits of a uint) the max board size is 16 (= sqrt(256)).\n   */\n  uint public boardSize;\n\n  enum GameState {\n      NeedOpponent,\n      Playing,\n      RevealMoves,\n      RevealBoard,\n      Over\n  }\n\n  enum PlayerState {\n    Ready,\n    Playing,\n    RevealedMoves,\n    RevealedBoard\n  }\n\n\n  event JoinGame(address player);\n  event RevealMoves(address player);\n  event RevealBoard(address player);\n\n\n  struct Player {\n      // player's board (will be set later)\n      bytes board;\n      // hash of player's board (should be obtained via calculateBoardHash)\n      bytes32 boardHash;\n      /*\n       Since we're doing a 10x10 grid that's 100 spaces, so a 256-bit integer\n       will more than suffice for storing all the moves made if we use each\n       bit of the integer to represent a move on the grid.\n\n       We do this instead of using an array as it results in less storage space\n       used as well as for faster board comparision later on.\n      */\n      uint moves;\n      // no. of hits player has scored against opponent\n      uint hits;\n      // player state\n      PlayerState state;\n  }\n\n  // players\n  mapping (address => Player) public players;\n  address public player1;\n  address public player2;\n\n  // current game state\n  GameState public state;\n\n  /**\n   * Check that the game can be revealed and that the\n   * current sender is a player who is yet to call reveal()\n   */\n  modifier canRevealMoves () {\n      require(state == GameState.Playing || state == GameState.RevealMoves);\n      // check that it's a valid player who hasn't yet revealed moves\n      require(players[msg.sender].state == PlayerState.Playing);\n      _;\n  }\n\n\n  /**\n   * Check that boards can be revealed.\n   */\n  modifier canRevealBoard () {\n    require(state == GameState.RevealMoves || state == GameState.RevealBoard);\n    // check that it's a valid player who hasn't yet revealed their board\n    require(players[msg.sender].state == PlayerState.RevealedMoves);\n    _;\n  }\n\n\n  /**\n   * Check that game can be joined.\n   */\n  modifier canJoin () {\n    require(state == GameState.NeedOpponent);\n    require(address(0) == player2);\n    require(msg.sender != player1);\n    _;\n  }\n\n\n  /**\n   * Initialize the game.\n   * @param ships_ the ship sizes\n   * @param boardSize_ the width and height of the board square\n   * @param maxRounds_ the number of goes each player gets in total\n   * @param boardHash_ Hash of player's board\n   */\n  constructor (bytes ships_, uint boardSize_, uint maxRounds_, bytes32 boardHash_) public {\n    require(1 <= ships_.length);\n    require(2 <= boardSize_ && 16 >= boardSize_);\n    require(1 <= maxRounds_ && (boardSize_ * boardSize_) >= maxRounds_);\n    // setup game\n    ships = ships_;\n    maxRounds = maxRounds_;\n    boardSize = boardSize_;\n    // setup player\n    player1 = msg.sender;\n    players[player1].boardHash = boardHash_;\n    players[player1].state = PlayerState.Playing;\n    // game state\n    state = GameState.NeedOpponent;\n  }\n\n\n  /**\n   * Join the game\n   * @param boardHash_ Hash of player's board\n   */\n  function join(bytes32 boardHash_)\n    public\n    canJoin()\n  {\n    // add player\n    player2 = msg.sender;\n    players[player2].boardHash = boardHash_;\n    players[player2].state = PlayerState.Playing;\n    // game state\n    state = GameState.Playing;\n    // log\n    emit JoinGame(player2);\n  }\n\n\n  /**\n   * Reveal moves.\n   * The moves are represented a 256-bit uint. For a given move (x, y) the\n   * bit position is calculated as 2^(boardSize * x + y)\n   *\n   * @param moves_ The moves by this player (each bit represents a move)\n   */\n  function revealMoves(uint moves_)\n    public\n    canRevealMoves()\n  {\n    // no. of moves should not be more than max rounds, but can be less since\n    // player may have already sunk all of opponent's ships early on\n    require(GameLibrary.countBits(moves_) <= maxRounds);\n\n    // update player\n    players[msg.sender].moves = moves_;\n    players[msg.sender].state = PlayerState.RevealedMoves;\n    state = GameState.RevealMoves;\n\n    address opponent = (msg.sender == player1) ? player2 : player1;\n\n    // if opponent has also already revealed moves then update game state\n    if (players[opponent].state == PlayerState.RevealedMoves) {\n      state = GameState.RevealBoard;\n    }\n\n    // log\n    emit RevealMoves(msg.sender);\n  }\n\n\n  /**\n   * Reveal board.\n   *\n   * The board array is an array of triplets, whereby each triplet represents\n   * a ship, specifying (x,y,isVertical).\n   *\n   * @param board_ This player's board as an array\n   */\n  function revealBoard(bytes board_)\n    public\n    canRevealBoard()\n  {\n    // board hash must match\n    require(players[msg.sender].boardHash == GameLibrary.calculateBoardHash(ships, boardSize, board_));\n\n    // update player\n    players[msg.sender].board = board_;\n    players[msg.sender].state = PlayerState.RevealedBoard;\n\n    address opponent = (player1 == msg.sender) ? player2 : player1;\n\n    // calculate opponent's hits\n    calculateHits(players[msg.sender], players[opponent]);\n\n    // if opponent has also already revealed board then update game state\n    if (players[opponent].state == PlayerState.RevealedBoard) {\n      state = GameState.Over;\n    }\n\n    // log\n    emit RevealBoard(msg.sender);\n  }\n\n\n  /**\n   * Calculate no. of hits for a player.\n   *\n   * Helper function to `reveal()`.\n   *\n   * This can be called while there are still rounds left to play, if a player\n   * thnks they've already sunk all the opponent's ships.\n   *\n   * @param  revealer_ The player whose board it is\n   * @param  mover_ The opponent player whose hits to calculate\n   */\n  function calculateHits(Player storage revealer_, Player storage mover_) internal {\n    // now let's count the hits for the mover and check board validity in one go\n    mover_.hits = 0;\n\n    for (uint ship = 0; ships.length > ship; ship += 1) {\n        // extract ship info\n        uint index = 3 * ship;\n        uint x = uint(revealer_.board[index]);\n        uint y = uint(revealer_.board[index + 1]);\n        bool isVertical = (0 < uint(revealer_.board[index + 2]));\n        uint shipSize = uint(ships[ship]);\n\n        // now let's see if there are hits\n        while (0 < shipSize) {\n            // did mover_ hit this position?\n              if (0 != (GameLibrary.calculateMove(boardSize, x, y) & mover_.moves)) {\n                mover_.hits += 1;\n            }\n            // move to next part of ship\n            if (isVertical) {\n                x += 1;\n            } else {\n                y += 1;\n            }\n            // decrement counter\n            shipSize -= 1;\n        }\n    }\n  }\n\n\n   /**\n    * Fallback should revert().\n    */\n    function() public {\n        revert();\n    }\n\n\n\n  /*\n  ------------------------------------------------------------\n  Helper functions\n  ------------------------------------------------------------\n  */\n\n\n  /**\n   * Convenience method for fetching metadata in a single call.\n   */\n  function getMetadata() public view returns (\n    bytes _ships,\n    uint _boardSize,\n    uint _maxRounds,\n    GameState _state,\n    address _player1,\n    address _player2\n  ) {\n    _ships = ships;\n    _maxRounds = maxRounds;\n    _boardSize = boardSize;\n    _state = state;\n    _player1 = player1;\n    _player2 = player2;\n  }\n\n}\n",
  "sourcePath": "/Users/ram/dev/cryptocurrency/bs/contracts/Game.sol",
  "compiler": {
    "name": "solc",
    "version": "0.4.24+commit.e67f0147.Emscripten.clang"
  },
  "schemaVersion": "2.0.1",
  "updatedAt": "2018-08-23T08:50:10.688Z"
}